:03000000021D2BB3
:0C1D2B00787FE4F6D8FD758122021D725D
:101BF400206B65795F7363616E0D0A00204B455954
:101C04005F325F505245530D0A002564200D0A00CF
:101C14000D0A3D3D3D3D3D3D3D3D3D3D3D3D3D3D53
:101C24003D3D3D3D3D3D3D3D3D3D3D3D3D3D3D3DE0
:101C34003D3D3D3D0D0A00736B753A4B2564200D07
:101C44000A00736F66742076657273696F6E3A2545
:101C540073200D0A00312E30302E30300067617051
:101C6400202564200D0A0074696D657220256420A6
:101C74000D0A003D3D3D3D3D3D3D3D3D3D3D3D3D30
:101C84003D3D3D3D3D3D3D3D3D3D3D3D3D3D3D3D80
:081C94003D3D3D3D3D0D0A0000
:101A90004200B000004100B2004100AF004100AE82
:011AA0000045
:10000E00758E5390FE917401F090FF027410F022E1
:1015E200E4900000F09000AFE0700A121ECB900071
:1015F20000EFF08005E4900000F0900000E064014C
:1016020070489000ADE070427BFF7A1B79F41209BA
:10161200191224F0EF700D7F011224F61223A7E4B1
:10162200FF022432E4FF1224F6121E419000B2742B
:1016320001F090009AE0FF121C9C90009AE0FF12C9
:1016420014E590009BE0FF021DB71224F0EF600347
:101652000216D5900000E0640270507BFF7A1C797C
:101662000012091990009AE0C394095005E004F0B1
:10167200800690009A7401F090009AE0FFD39403E0
:101682004016A3E0FE70059000998009EED3940302
:10169200400690008A7402F09000B27401F0121CAD
:1016A2009C90009AE0FF1214E58025900000E0B4BF
:1016B200032190009BE0C394055005E004F08005EF
:1016C200E490009BF090009BE0FF121DB7121E41B8
:0316D2001222E001
:0116D50022F2
:0817B400900006EEF0A3EFF037
:1017BC00900086E06402706A9000ADE06401706293
:1017CC00900006A3E0FFE4900086F090009E04F0E9
:1017DC00900067E0FED3940F4048EED39F400CE09E
:1017EC009F90009CF0A37401F08016900067E0FEBF
:1017FC00C3EF9EFF90009CF01224DB90009D7402BE
:10180C00F090009CE0FFC394024006EFD394144088
:10181C0007E490009CF0A3F01222E07D027F0212FC
:10182C00236A90009DE0FDB4011490009CE0FF7EC3
:10183C0000900006EE8FF012065BAFF0FE22EDB4C6
:10184C00021890009CE0FFC3900007E09FFF9000FF
:10185C0006E09400FEF0A3EFF022900006E0FEA359
:02186C00E0FF9B
:01186E002257
:100D3100900008ECF0A3EDF0900006EEF0FAA3EFBE
:020D4100F0FBC5
:100D4300E490000AF0A3F0A3F0A37414F0A3120735
:100D5300DD00000000C3EB9432EA940040169000DB
:100D630008E0FEA3E0FF900006E0FCA3E0FDD39FB4
:100D7300EC9E4003020E0AE412023CE4FBFA797A89
:100D83007844120121C004C005C006C007900008C2
:100D9300E0FCA3E0FDE412023CE4FBFA797A784438
:100DA300120121D003D002D001D000120029C004C7
:100DB300C005C006C007900006E0FCA3E0FDE412F6
:100DC300023CE4FBFA797A7844120121E4FBFA79D4
:100DD300FF7843120121A804A905AA06AB07D0078F
:100DE300D006D005D00412012190000E1207D1E4E1
:100DF300FFFEFDFC90000EE0F8A3E0F9A3E0FAA3E8
:100E0300E0FB1201BE50057E007FFF22E4FFFE7D62
:100E1300E17C4390000EE0F8A3E0F9A3E0FAA3E03D
:100E2300FB1201BE5004E4FEFF22E4FFFE7DFA7CC8
:100E33004390000EE0F8A3E0F9A3E0FAA3E0FB126D
:100E430001BE604F404DE4FFFE7DFA7CC390000E6F
:100E5300E0F8A3E0F9A3E0FAA3E0FB12002D1202ED
:100E63007590000AEEF0A3EFF0FDAC06E412023C2D
:100E7300E4FBFA7910784012012112027590000AFE
:100E8300EEF0A3EFF090000DE02FF090000CE03EA9
:100E9300F0806590000EE0F8A3E0F9A3E0FAA3E088
:100EA300FBE4FFFE7DFA7C431200291202759000D9
:100EB3000AEEF0A3EFF0FDAC06E412023CE4FBFA09
:100EC3007910784012012112027590000AEEF0A306
:100ED300EFF0D39414EE9400400990000AE4F0A3D9
:100EE3007414F090000AE0FEA3E0FFC390000DE04D
:100EF3009FF090000CE09EF090000CE0FEA3E0FF5A
:010F030022CB
:10104300E4900000F0A3F0A3F0A3F0A3F0A3F090CA
:1010530000B1E004F070069000B0E004F0D390001B
:10106300B1E094109000B0E09427500302117AE4A9
:10107300F0A3F07B0190000904F0A37400F0A374C3
:1010830004F07A0079021212B3900002E0FEA3E0AA
:10109300FFA3E0FCA3E0FD120D31900000EEF0A3EE
:1010A300EFF01217B4900000EEF0A3EFF07BFF7A9D
:1010B3001C790E900039EEF0A3EFF0120919D390CA
:1010C3000003E09432900002E094005003021159AF
:1010D3001224F0EF704C9000B2E0B40128E4F0D396
:1010E300900001E09432900000E0940090008D7431
:1010F300024008F090009414F0800AF090008E14DF
:10110300F0900094F090009BE0FF121DB790009ABE
:10111300E0FF1214E5900000E0FEA3E0FF1219DDEA
:10112300802E9000ADE0B40118E4FF1224321223A4
:10113300A790009AE0FF1214E59000B47401F080C8
:101143000FE4FF1224327F041223FCE49000B4F076
:10115300E49000AFF022E49000ADF09000B4F01200
:1011630023A7E4FF1224329000AE74FFF0FF1214A1
:07117300E59000AF7401F0EC
:01117A002252
:101B430012000E122268122417D2AF1224A31224F9
:101B530061120F047FC87E001223281222B97F204E
:101B63007E0312244A1223A77F041214E57FF47E16
:101B73000112244A7F021224CEE4FF1224327BFF97
:101B83007A1C79141209197BFF7A1C793B9000396E
:101B93007423F0A37441F012091990003974FFF013
:101BA300A3741CF0A37459F07BFF7A1C79461209C5
:101BB300197BFF7A1C796190009AE0FF900039E469
:101BC300F0A3EFF01209197BFF7A1C796B90009B4D
:101BD300E0FF900039E4F0A3EFF01209197BFF7ADC
:101BE3001C79771209191215E21210431225078086
:011BF300F5FC
:10212B00900008EEF0A3EFF0A3ECF0A3EDF0D39F3B
:10213B00EC9E4004E4FF8022900094E0FFC39000EB
:10214B0009E09FFF900008E09400FEC390000BE0B5
:0E215B009F90000AE09E50057F0A1224322257
:1019DD00900006EEF0A3EFF090008EE0B40103024C
:1019ED001A8090009AE0B40A004003021A8F901AF0
:1019FD0002F8282873021A20021A2C021A38021A29
:101A0D0044021A50021A5C021A68021A74021A80F1
:101A1D00021A80900006E0FCA3E0FD7F1E805E9020
:101A2D000006E0FCA3E0FD7F2E8052900006E0FC56
:101A3D00A3E0FD7F318046900006E0FCA3E0FD7F32
:101A4D0035803A900006E0FCA3E0FD7F3A802E90B1
:101A5D000006E0FCA3E0FD7F3E8022900006E0FC46
:101A6D00A3E0FD7F448016900006E0FCA3E0FD7F1F
:101A7D004C800A900006E0FCA3E0FD7F507E001232
:031A8D00212B22E8
:10234A00900089E0B4011890009AE0D39403400FFA
:10235A007403F0FF1214E51222E0E4900089F022DF
:1013DF000D0A3D3D3D3D3D3D3D3D3D3D3D3D3D3D91
:1013EF003D3D3D3D3D3D3D3D3D3D3D3D3D3D3D3D1E
:1013FF003D3D3D3D3D3D3D3D3D3D0D0A00706F770F
:10140F006572206F6E20666C617368206761703A39
:10141F002564202074696D65723A2564200D0A00D9
:10142F00706F776572206F6E20666C6173682076BF
:10143F00616C75653A256420207369676E3A25647F
:10144F00200D0A003D3D3D3D3D3D3D3D3D3D3D3D7A
:10145F003D3D3D3D3D3D3D3D3D3D3D3D3D3D3D3DAD
:10146F003D3D3D3D3D3D3D3D3D3D3D3D0D0A003D3D
:10147F003D3D3D3D3D3D3D3D3D3D3D3D66697273CD
:10148F007420696E697420646174613D3D3D3D3D1A
:10149F003D3D3D3D3D3D200D0A003078253034580F
:1014AF00202030782530345820203078253034589B
:1014BF002020307825303458200D0A00666C617377
:1014CF0068206761703A2564202074696D65723AEF
:0614DF002564200D0A0047
:101AA10045009A000000000044009F2020050141EC
:031AB10000A3018E
:0624F0009000A3E0FF22B2
:0624F6009000A3EFF022AC
:10230600D310AF01C3C0D075FDF075FC0F8EFA8FE8
:10231600F975FDD275FC2D75FDE175FC1ED0D092C8
:02232600AF22E4
:10229100D310AF01C3C0D08FFB75FDF075FC0FAE3D
:1022A10004AF058EFA8FF975FDB475FC4B75FDE130
:0822B10075FC1ED0D092AF2293
:0C1F49007B017A00799A7D057F047E3CC4
:101F5500D310AF01C3C0D0900008EEF0A3EFF0A3FB
:0B1F6500EDF0A3EBF0A3EAF0A3E9F01D
:101F7000E4A3F0C2AFF090000AE0FF90000EE0C3CF
:101F80009F502C90000BE0FBA3E475F0011206714A
:101F9000A9F0FA1205AEFF900008E475F0011206F0
:101FA00071ADF0FC12229190000EE004F080C7D2D7
:011FB000AF81
:051FB100D0D092AF2228
:040003008F828E83D7
:03000700E493FF80
:01000A0022D3
:10206D00900008EEF0A3EFF0A3EBF0A3EAF0A3E9E4
:10207D00F0AF051DEF6028900008E475F001120621
:10208D007185F082F583E493FF90000AE0FBA3E4F1
:10209D0075F001120671A9F0FAEF1205F480D22243
:1021DC00E4FDFCED2400FFE4343CFE120003749F8C
:1021EC002DF582E43400F583E0B507030C80037F02
:1021FC0000220DEDB404DCECC3940440037F0122F7
:02220C007F0051
:01220E0022AD
:100F0400E4900000F090FE927404F01221DCEF7083
:100F14000790000004F0807C7BFF7A1379DF1209CC
:100F2400197B017A00799A7D057F047E3C12206D3D
:100F34007BFF7A14790C90009AE0FF900039E4F07A
:100F4400A3EFF090009BE0FF90003BE4F0A3EFF0F0
:100F54001209197BFF7A14792F90009CE0FF90000E
:100F640039E4F0A3EFF090009DE0FF90003BE4F043
:100F7400A3EFF01209197BFF7A147953120919901F
:100F8400009AE0D394095006A3E09405400690002B
:100F9400007401F0900000E0640160030210207B03
:100FA400FF7A14797E12091990009A7401F0A374DF
:100FB40003F07F007E3C1223067B017A00799F7D3B
:100FC40004121F55121F497B017A00799F7D047F0B
:100FD400007E3C12206D7BFF7A1479A990009FE07B
:100FE400FF900039E4F0A3EFF09000A0E0FF900040
:100FF4003BE4F0A3EFF09000A1E0FF90003DE4F0AB
:10100400A3EFF09000A2E0FF90003FE4F0A3EFF024
:101014001209197BFF7A1479531209197BFF7A1488
:1010240079CB90009AE0FF900039E4F0A3EFF090C0
:0F103400009BE0FF90003BE4F0A3EFF0020919EE
:1022E0007F047E3C1223067B017A00799F7D047F68
:1022F00000121F55121F497B017A00799A7D057FD4
:06230000047E3C02206D8A
:0E24B200EF1F70011E144E6004000080F32224
:10244A007DA07C01ED1D70011C144C70F7EF1F700C
:06245A00011E144E70EAA1
:012460002259
:03250B000224B2F5
:1023E10090FF0974C1F090FF08F090FF07F090FF93
:0B23F10006F0D291D290D287D2862253
:0820AD00900039EFF0A3EDF003
:1020B500E4A3F0F090003AE0FFA3E0C39F5027C2ED
:1020C50087900039E020E704C2868002D286D28755
:1020D5007F057E0012250B900039E025E0F0900089
:0620E5003BE004F080CE98
:0120EB0022D2
:0820EC00900039EFF0A3EDF0C4
:1020F400E4A3F0F090003AE0FFA3E0C39F5027C2AE
:1021040087900039E020E004C2868002D286D2871C
:102114007F057E0012250B900039E0C313F0900078
:062124003BE004F080CE58
:01212A002292
:1023FC00900007EFF0C2917D047F801220AD900019
:0B240C0007E0FF7D081220ADD29122F6
:10223C00900037EFF0A3EDF0C2917D037FA0122048
:10224C00AD900037E025E025E0FF7D061220AD9033
:0C225C000038E0FF7D041220ECD291223B
:0924E700D291D290D287D2862254
:081AB4004100B3004100B40041
:05001E007F060223FC37
:052502007F040223FC30
:10238900E4900000F0F0900000E0FFC39420500DAD
:0D2399007D0F12223C900000E004F080E96E
:0123A6002214
:1023A700E4900036F0F0900036E0FFC39420500D23
:0D23B700E4FD12223C900036E004F080E9C5
:0123C40022F6
:1022B9001223E17F521223FC7F301223FC7F0A1282
:1022C90023FC7F081223FC7F021223FC7F061223C2
:0722D900FC1223A702238978
:0E24C000E4FD7F1C12223CE4FD7F1F02223C43
:101DB700900006EFF07F061223FCE4FD7F1F12223E
:101DC7003CE4FD7F1C12223C900006E014601B14CB
:101DD700602314602B14603A1460492405705A7DFF
:101DE7000A7F1B12223C7D0E80317D0B7F1B122246
:101DF7003C7D0A80267D0E7F1B12223C7D0A801BBC
:101E07007D0A7F1B12223C7D0A7F1C12223C7D0B20
:101E170080227D0A7F1B12223C7D0B7F1C12223CF5
:101E27007D0A80107D0A7F1B12223C7D0A7F1C12CF
:0A1E3700223C7D0E7F1F12223C2288
:1014E500900006EFF07F061223FCE4FD7F1D12221B
:1014F5003CE4FD7F1E12223C9000B4E06401700EB6
:101505009000B3E070057D060215BC0215CF900072
:1015150006E0B401047D068063900006E0B4020B8A
:101525007D0B7F1D12223C7D0C8065900006E0B48A
:10153500030B7D0F7F1D12223C7D04805390000616
:10154500E0B4040B7D067F1D12223C7D0680419090
:101555000006E0B4050B7D0D7F1D12223C7D068043
:101565002F900006E0B4060B7D0D7F1D12223C7DF9
:101575000E801D900006E0B407067D077F1D80598B
:10158500900006E0B4080D7D0F7F1D12223C7D0EF4
:101595007F1E8045900006E0B4090D7D0F7F1D126A
:1015A500223C7D067F1E8031900006E0F4702D9070
:1015B50000B3E070157D017F1D12223C7D0E7F1E5C
:1015C50012223C9000B37401F022E49000B3F0FDC8
:0D15D5007F1C12223CE4FD7F1F12223C22ED
:101ABC005E00680000000000000000000000000054
:101ACC00000000000000000000000000000000000A
:091ADC0000410086004100670092
:1022680090FF0E74C1F090FF0F7461F090FFA0749E
:1022780016F090FFA104F075CEFF75CDE675CC067B
:09228800759E02759810D2AC227B
:0C24DB00C2AC8F993099FDC299D2AC229E
:03250E000224DBC9
:0B220F0090000DEBF0A3EAF0A3E9F053
:10221A00E4FEEEC39D501A90000DE0FBA3E0FAA382
:10222A00E0F98E827583001205C7FF12250E0E8013
:01223A00E1C2
:01223B002280
:10236A009000087455F0A3EFF0A3EDF0A3740DF0FC
:0F237A00A3740AF07B017A0079087D0502220F17
:0624FC00AE071224DB22F2
:0300230002202098
:0D202000C0E0C083C082C0D075D000C007F2
:10202D00E59830E030AF995398FE900086E014604B
:10203D0019047021EFB4551D900068F0900066E012
:10204D0004F09000867401F0800B900067EFF09023
:05205D0000867402F092
:0B206200D007D0D0D082D083D0E03275
:101AE5004100AD004100A4004200A500004100A74F
:0F1AF500004200A800004100AA014200AB00001F
:0F24A30090FF1D7461F090FF15F090FF16F0226E
:10186F00E4900002F0A2A533900001F09000A4E0F4
:10187F0014602614604E14700302191224036003BF
:10188F0002191B900001E060030219209000A5F0DF
:10189F00A3F09000A404F08078900001E0706B90AA
:1018AF0000A6E004F070069000A5E004F0C39000DD
:1018BF00A6E094039000A5E09400403E9000A4742D
:1018CF0002F08036900001E0B40106A37404F080AA
:1018DF003B9000A6E004F070069000A5E004F0C372
:1018EF009000A6E094789000A5E09400400C900042
:1018FF00027405F09000A47403F07F0A7E00122496
:10190F004A800E900001E0B401078000E49000A42B
:06191F00F0900002E0FF61
:01192500229F
:10192600E4900002F0A2A633900001F09000A7E038
:1019360014602614604E1470030219C92403600350
:101946000219D2900001E060030219D79000A8F0B6
:10195600A3F09000A704F08078900001E0706B90EF
:1019660000A9E004F070069000A8E004F0C390001F
:10197600A9E094039000A8E09400403E9000A7746C
:1019860002F08036900001E0B40106A37404F080F2
:101996003B9000A9E004F070069000A8E004F0C3B4
:1019A6009000A9E094F09000A8E09400400C90000C
:1019B600027406F09000A77403F07F0A7E001224DA
:1019C6004A800E900001E0B401078000E49000A771
:0619D600F0900002E0FFAA
:0119DC0022E8
:101ECB0012186FBF05037F0122121926BF062112BC
:101EDB0024F0BF011490009EE0700E9000AD04F052
:101EEB0090009EF01222E0803CE49000ADF0803533
:101EFB009000AAE0602330A60320B51D9000ADE052
:101F0B0070177F32FE12244AE49000AAF020A60339
:101F1B007F032220B50F7F022230A60930B5069031
:101F2B0000AA7401F030A513D39000ACE09401909B
:0D1F3B0000ABE094004004E4F0A3F07F0050
:011F48002276
:1016D6007365742074696D65207365636F6E643A13
:1016E60025640D0A0065786368616E67655F6865E5
:1016F60061745F76616C7565200D0A0074696D65AD
:10170600207365636F6E643A2564200D0A0070725B
:101716006F74656374200D0A0074696D65206F66C9
:1017260066200D0A0074696D655F746F5F302E3533
:1017360048202074696D655F7365633D2564200DDF
:101746000A0074696D655F746F5F314820207469A3
:101756006D655F7365633D2564200D0A0074696DD0
:10176600655F746F5F3248202074696D655F7365CD
:10177600633D2564200D0A0074696D655F746F5FB3
:101786003448202074696D655F7365633D25642068
:101796000D0A0074696D655F746F5F3848202074A8
:0E17A600696D655F7365633D2564200D0A0063
:101B04004100930042009100004200950000410012
:101B1400890041008A00410099004100940041007D
:101B24008D0042008B000042008F000042008700BD
:0A1B34000041008E004200970000FF
:1023C500900091EEF0A3EFF0E4A3F07BFF7A16798D
:0C23D500D6900039EEF0A3EFF0020919D9
:101C9C00EFB40A004003021D2A901CACF8282873EC
:101CAC00021CCA021CD4021CDE021CE9021CF40237
:101CBC001CFF021D0A021D15021D20021D20900092
:101CCC0087E4F0A3743CF022900087E4F0A374F056
:101CDC00F0229000877401F0A3742CF022900087FE
:101CEC007401F0A37468F0229000877401F0A3745F
:101CFC00A4F0229000877401F0A374E0F02290000D
:101D0C00877402F0A37458F0229000877402F0A339
:0F1D1C007494F0229000877404F0A374B0F02246
:1021A50090009AE0B40A00502D9021B5F8282873C4
:1021B5000221D50221D50221D50221D50221D50240
:1021C50021D50221D50221D50221D50221D58000B4
:0721D5009000947401F02258
:1021690090008DE0B4023490008BE475F001120602
:102179005BFEC3900088E095F0900087E09E501BBD
:102189007BFF7A1679EB120919E490008DF0900023
:0C2199008BF0A3F090008EF01221A52224
:101E4100E4900093F090009BE0FF7008900091F007
:101E5100A3F08052EFB4010C9000917407F0A30439
:101E6100F0E48042EFB4020D900091740EF0A3747F
:101E710010F0E48031EFB4030D900091741CF0A3D5
:101E81007420F0E48020EFB4040D9000917438F0D8
:101E9100A37440F0E4800FEFB405179000917470C3
:101EA100F0A37480F0E4900095F0A3F090008FF01F
:101EB100A3F07BFF7A177902900091E0FFA3E090F5
:0A1EC1000039CFF0A3EFF002091979
:10246100E490FE80F0F589758CF2758AFBC28DD2FD
:06247100A9D28CD2AF22BB
:03000B0002117B64
:10117B00C0E0C0F0C083C082C0D075D000C000C03A
:10118B0001C002C003C004C005C006C0071224F092
:10119B00EF6003021271900093E004F0E0C39464DB
:1011AB005003021298122169900099E0B4022D901D
:1011BB000096E004F07006900095E004F0D39000E8
:1011CB0096E09420900095E0941C4010900099E4D8
:1011DB00F0900095F0A3F090008904F0D39000926A
:1011EB00E09400900091E094004048A3E024FFF0CD
:1011FB00900091E034FFF090008AE0640270609000
:10120B000096E004F07006900095E004F0D3900097
:10121B0096E09420900095E0941C404390008974D4
:10122B0001F0A3E4F0900095F0A3F07BFF7A17791F
:10123B0014802990009BE060267F011224F6900019
:10124B0091E4F0A3F0900095F0A3F090008AF09059
:10125B000099F01223A77BFF7A17791F12091990B7
:10126B000093E4F080279000ADE0B401209000974C
:10127B00E475F00112065BFED3E5F094E0EE942EDC
:10128B00400B9000ADE4F0900097F0A3F0D007D0A6
:10129B0006D005D004D003D002D001D000D0D0D0DE
:0812AB0082D083D0F0D0E032C4
:101FB60090008FE475F00112065BFEE5F08EF012DC
:101FC60008541FE007081FE80E101FF01C201FF81A
:101FD6003840200070800000201F7BFF7A17792B85
:101FE600801E7BFF7A17794880167BFF7A17796304
:101FF600800E7BFF7A17797E80067BFF7A177999A8
:10200600900091E0FFA3E0900039CFF0A3EFF0122B
:0A2016000919E490008FF0A3F022F6
:041B3E004100B500AD
:102432007E009000B5E0FD7C00120881E47B64FA26
:07244200F9F81207318FDFEA
:012449002270
:1023280090FF0074C1F0E490FF9CF0AC06AD077E0E
:102338007A7F12120606EF149000B5F0F5DE75DD0F
:022348009722DA
:1024170090FF017401F090FF03F075B4807F147E84
:0B242700001224B290FE9B7449F022CA
:10247700E4FFFE75B50143B440E5B430E5FB53B462
:05248700DFAEB7AFB6A7
:01248C00222D
:10248D00E4FFFE75B50343B440E5B430E5FB53B44A
:05249D00DFAEB7AFB691
:0124A2002217
:0B12B300900006EBF0A3EAF0A3E9F0C6
:1012BE0090000C1207DD00000000E4900010F0F02A
:1012CE0090000CE0F8A3E0F9A3E0FAA3E0FB1224EF
:1012DE0077E4FCFDEB2FFFEA3EFEED39FDEC38FC2A
:1012EE0090000C1207D1900010E004F0E0C39405BA
:1012FE0040CE90000CE0FCA3E0FDA3E0FEA3E0FFD7
:10130E00E47B05FAF9F812073190000C1207D1E4CC
:10131E007F887E13FDFC90000CE0F8A3E0F9A3E0BB
:10132E00FAA3E0FB1206A6E4FB7A10F9F8120731D5
:10133E00900006E0FBA3E0FAA3E0F9EE8FF01206B0
:10134E008790000C1207DD00000000E4900010F002
:10135E0090000CE0F8A3E0F9A3E0FAA3E0FB12245E
:10136E008DE4FCFDEB2FFFEA3EFEED39FDEC38FC83
:10137E0090000C1207D1900010E004F0E0C3940529
:10138E0040CE90000CE0FCA3E0FDA3E0FEA3E0FF46
:10139E00E47B05FAF9F812073190000C1207D1E43C
:1013AE007F887E13FDFC90000CE0F8A3E0F9A3E02B
:1013BE00FAA3E0FB1206A6E4FB7A10F9F812073145
:1013CE00900009E0FBA3E0FAA3E0F9EE8FF002062D
:0113DE008787
:0D24CE0075BD17EF75F02BA490FEA0F02255
:0425070043BD10229E
:100026000202E1E86480F8E933E83360110460F025
:10003600ED33EC337009E8FCE9FDEAFEEBFF220440
:1000460060DED3EB9FEA9EE99DE8C2E78CF0C2F73B
:1000560095F0400CE8CCF8E9CDF9EACEFAEBCFFB07
:100066001202AC85D0F05804700320D5B3E80470B2
:10007600075002B2D50202EB92D5EC0460F7E4CC4D
:10008600C0E0C398F8603B94186008400DD0E0FBD0
:100096000202C3E4FBFAC9FC8028E830E406E4C99E
:1000A600FBE4CAFCE830E305E4C9CACBFCE8540724
:1000B6006010F8C3E913F9EA13FAEB13FBEC13FC2F
:1000C600D8F130F52FC3E49CFCEF9BFFEE9AFEEDD2
:1000D60099FDD0E0FBEF4E4D4C701222DB0302027D
:1000E600E8EC2CFCEF33FFEE33FEED33FDED30E7AD
:1000F600EB0202C3EF2BFFEE3AFEED39FDD0E0FB3B
:1001060050130BBB00030202EBED13FDEE13FEEFE3
:0801160013FFEC13FC0202C30D
:10011E000202EBEC5D046005E8590470030202E193
:10012E001202AC580460F6EC4860F2EC7004FDFE6E
:10013E00FF22C860DB2481C85009C39860025006B4
:10014E000202E89850CAF582E9294B4A7005AB8243
:10015E000202D775F0007C1A7880C3EF9BEE9AED01
:10016E0099400DC3EF9BFFEE9AFEED99FDE842F02C
:10017E00DC23ACF0D0E0FFD0E0FED0E0FDAB82207F
:10018E00E7101BEB60BAEC2CFCEF33FFEE33FEED09
:10019E0033FD0202C3E803F830E705C0F075F00046
:1001AE00EF2FFFEE33FEED33FD40B830E7C280AAED
:1001BE0074F8CC6480CCC86480C8F58204604FC3E8
:1001CE00EB9FF5F0EA9E42F0E99D42F0E89C45F087
:1001DE00603C501DE5825FFFE582D313CB5BCBF411
:1001EE002B5582FB50280ABA002409B9002008803A
:1001FE001DE5825BFBE582D313CF5FCFF4C3132FD4
:10020E005582FF50090EBE00050DBD00010CC3EB5B
:10021E009FF5F0EA9E42F0E99D42F0E89C45F060C1
:09022E0007CC4820E701B3EC22E3
:1002370075F020800E75F010800575F0087D007E42
:10024700007F003392D530D5031207C3EC3340103B
:10025700EF33FFEE33FEED33FDEC33FCD5F0ED224B
:0E026700E5F0247EA2D513CC92E7CDCEFF2287
:10027500EDD2E7CD33EC3392D524814006E4FFFE81
:10028500FDFC22FCE4CFCECDCC24E0501174FF80E0
:10029500EDC3CC13CCCD13CDCE13CECF13CF04707D
:0702A500F030D5DE0207C3B3
:1008AE00E50D2439F582E43400F583E0050D229040
:1008BE000036301003900039E475F00112080E0274
:1008CE0005AE2009E97F2ED2098018EF540F24902F
:1008DE00D43440D4FF300D0BEF24BFB41A005003B4
:1008EE002461FFE50E6002150E0511E5117002057B
:1008FE001030100E900036E475F00112080EEF0263
:10090E0005F40224FC7403D2108003E4C210F50D2A
:10091E00900036120825E4F50EF510F511E50E607F
:10092E00077F201208F180F5750FFFC20AC209C2B7
:10093E000BC20CC20EC20FC2111208BDFF700D30D9
:10094E0010057F00120902AF11AE1022B4255FC24E
:10095E00D5C20D1208BDFF24D0B40A00501A75F08E
:10096E000A780E30D50508B6FF0106C6A426F62075
:10097E00D5047002D20C80D924CFB41A00EF5004E3
:10098E00C2E5D20D020BF4D20A80C6D20980C0D2C3
:10099E000B80BCD2D580BAD20E80B47F201208F163
:1009AE00200B077401B50E0040F11208AEFF1208BD
:1009BE00F102092BD211D20F80951208AEFB12084C
:1009CE00AEFA1208AEF94A4B700679F27A0C7BFF3A
:1009DE00200B2EE50E602A7E008E82758300120596
:1009EE00C760060EEE650F70F0C2D5EBC0E0EAC030
:1009FE00E0E9C0E0EE120C55D0E0F9D0E0FAD0E01C
:100A0E00FB1205AEFF60AAEBC0E0EAC0E0E9C0E071
:100A1E001208F1D0E02401F9D0E03400FAD0E0FB66
:100A2E00E50F0460DCD50FD98087D20B80A2120CA3
:100A3E003760F7E50F7001041202F6A90F600DE59D
:100A4E000F600914F50F120CDFEF60F3EA30E702C6
:100A5E00F404C3995079EAF4250F0430E701E40455
:100A6E00F50F800D120C3760C1EA050F250F12022B
:100A7E00F6EA900065F030E701E4250F04D50F0487
:100A8E00200E0114120C55E4C0E0120CDF9000652C
:100A9E00E0601320E70714F01208D9802204F0D08A
:100AAE00E014C0E07F001208D9E50F60071208D0ED
:100ABE00150F800B300E031208D0D0E002092BD098
:100ACE00E00480C4120C37609EE50F041202F6900B
:100ADE000065EAF0E50F200E026001042404120CFA
:010AEE0055B2
:100AEF0074FF04C0E0120CDF1208D9E50F200E02CC
:100AFF0060031208D0D0E0B50FE87F451208E390ED
:100B0F000065E07F2B30E7047F2DF404C0E012086E
:100B1F00F1D0E075F00A84C0F01208DAD0E01208C4
:100B2F00DA02092B791080027908C20FC2118008EE
:100B3F00D2D5790A8004790AC2D5E50F047002F57F
:100B4F000FE4FAFDFEFF1208AEFC7B08200A131219
:100B5F0008AEFD7B1030090A1208AEFE1208AEFF78
:100B6F007B20EC3382D592D55013C3E43009069F16
:100B7F00FFE49EFEE4200A039DFDE49CFCE4CBF819
:100B8F00C20AEC700CCFCECDCCE824F8F870F3800D
:100B9F0017C3EF33FFEE33FEED33FDEC33FCEB33D6
:100BAF00FB994002FB0FD8E9EB300A05F8D0E0C4FF
:100BBF0048B20AC0E00AEC4D4E4F78207B0070C25D
:100BCF00EAB50F0040BCC0E0120C57D0F0D0E020C7
:100BDF000A04C4C0E0C4B20AC0F01208DAD0F0D5DB
:100BEF00F0EB02092B12082E09C8530B3358099941
:100BFF004C0995420B374F0B3F440B3F4909AE430E
:100C0F000B45550A72460AD2450A3C470D12500948
:100C1F009D2D09A12E09C42B09A52309C2200CFB68
:100C2F002A095D48000009BCE50FB4FF03750F06E4
:100C3F001208AEFC1208AEFD1208AEFE1208AEFF8F
:100C4F0090005E020333790AA2D5200C14300E09EE
:100C5F00B910020404B9080104A2D5200F025001F3
:100C6F0004200B68920BB50E005034C0E07F20308B
:100C7F000C197F30A20B720F720E500F120CAEC2F6
:100C8F000BC20FC20EC2117F30800F300E03E9C0AE
:100C9F00E01208F1300E03D0E0F9D0E0B50ECC3001
:100CAF000E177F30B9100C1208F17F58300D077FE7
:100CBF00788003B908031208F1300B057F2D020865
:100CCF00F17F202011F87F2B200FF322920B80CF82
:100CDF007F00B40700500B245EF582E43400F583E7
:100CEF00E0FF22286E756C6C2900D20A1208AE3014
:100CFF000AF8C20A780E30D50108F602095D2D50A8
:100D0F004349581208AE2403B405004001E4900D86
:100D1F000D931208E2743A1208E2D20C750E040217
:020D2F000B3384
:1002AC00E9D2E7C933E833F892D5EDD2E7CD33EC98
:0702BC0033FC5002B2D52211
:1002C300EC30E7100FBF000C0EBE00080DBD00049C
:1002D3000BEB6014A2D5EB13FCED92E7FD2274FF48
:1002E300FCFDFEFF22E480F8A2D574FF13FC7D80A1
:0302F300E480EFB5
:1002F600F920E73624F950037907E4F42402FBE5F4
:1003060082158270021583DBF6E024FB501BE96040
:1003160014E4F0E582158270021583E004F0B40A55
:0D03260008E4F0D9EE7401F00A22C2D522DD
:10033300ED33EC3392D5FA602AB4FF33EDC2E77B99
:10034300FF60067A037958E4227A03796120D504A1
:100353007A03795C224E614E002B494E46002D49AB
:100363004E4600E47A08F0A3DAFC7B00740722C04F
:1003730083C082ECC0E0EDC0E0EEC0E0EFC0E0EA95
:1003830075F010A4CAABF075F04DA42BFBE435F067
:10039300FCEA2410FAEB34C5FBEC34D9FCEDC2E7DC
:1003A300FF75F056A4F42411C5F0F434C58FF0A4FE
:1003B3002AE5F03BE43CF020E71412056ED0E0FFA1
:1003C300D0E0FED0E0FDD0E0FC1201218014F40463
:1003D30012056ED0E0FFD0E0FED0E0FDD0E0FC12CD
:1003E3000438D082D083E0FAEDD2E7CD33EC332466
:1003F30082FBE4C3CF33CFCE33CECD33CD33DBF368
:100403007B0775F00A846004F0A31B0AE5F0F0A3F0
:100413008FF0740AA4FFACF08EF0740AA42CFEAC27
:10042300F050010C8DF0740AA42CFDE435F0F0A318
:05043300DBDE7407226E
:10043800EC4D6011E8497017ED33EC3304600DE4BE
:10044800FCFFFEFD22E933E8330470F80202E112F2
:1004580002AC58046009E4CC2481500628500902F3
:1004680002EB2840030202E8C0E0EB4A7044B9807E
:1004780006D0E0FB0202D7EF4E701CBD8008EBFFF0
:10048800EAFEE9FD80EBE98DF0A4FEE5F002052126
:10049800E9CDF9EAFEEBFFEF89F0A4FCE5F0CE899F
:1004A800F0A42EFFE435F0CD89F0A42DFEE435F05C
:1004B8008067EF4E7005BD80D780C3EF8BF0A4AC8A
:1004C800F0EE8BF0A42CFCE435F0F8EF8AF0A42CC5
:1004D800E5F038FCE433CB8DF0A42CFCE5F03BF8D8
:1004E800EE8AF0A42CFCE5F038F8E433CF89F0A4C8
:1004F8002CFCE5F038CF3400CE89F0A42FFFE5F0CE
:100508003EFEE433C98DF0A42EFEE5F039CD8AF025
:10051800A42FFFE5F03EFEE43DFD33D0E0FB50079D
:100528000BBB000F0202EBEC2CFCEF33FFEE33FEAB
:06053800ED33FD0202C3D9
:10053E003F8000004120000042C80000447A0000C5
:10054E00461C400047C35000497424004B18968047
:10055E004CBEBC205A0E1BCA6753C21C749DC5AE3E
:10056E00FB60065407601C232312059CEB54386075
:10057E0009120588120597120438ECF8EDF9EEFA17
:10058E00EFCB22EB12059780F1543803241C900513
:10059E003EFE93FC0EEE93FD0EEE930ECE93FF22D7
:101D3700021B43E493A3F8E493A34003F68001F264
:101D470008DFF48029E493A3F85407240CC8C333AD
:101D5700C4540F4420C8834004F456800146F6DF7C
:101D6700E4800B0102040810204080901A90E47E62
:101D7700019360BCA3FF543F30E509541FFEE49371
:101D8700A360010ECF54C025E060A840B8E493A338
:101D9700FAE493A3F8E493A3C8C582C8CAC583CA63
:101DA700F0A3C8C582C8CAC583CADFE9DEE780BE1B
:011B420000A2
:1005AE00BB010689828A83E0225002E722BBFE024B
:0905BE00E32289828A83E493227E
:1005C700BB010CE58229F582E5833AF583E02250E9
:1005D70006E92582F8E622BBFE06E92582F8E22233
:0D05E700E58229F582E5833AF583E493224D
:1005F400BB010689828A83F0225002F722BBFE01E6
:02060400F322DF
:10060600BC000BBE0029EF8DF084FFADF022E4CCD8
:10061600F875F008EF2FFFEE33FEEC33FCEE9DECA1
:10062600984005FCEE9DFE0FD5F0E9E4CEFD22EDE7
:10063600F8F5F0EE8420D21CFEADF075F008EF2F31
:10064600FFED33FD4007985006D5F0F222C398FD22
:050656000FD5F0EA22BF
:10065B00C5F0F8A3E028F0C5F0F8E582158270022A
:06066B001583E038F022C7
:10067100A3F8E0C5F025F0F0E5821582700215833C
:06068100E0C838F0E82299
:10068700BB010A89828A83F0E5F0A3F0225006F7BE
:0F06970009A7F01922BBFE06F3E5F009F31922BB
:1006A600E88FF0A4CC8BF0A42CFCE98EF0A42CFCF3
:1006B6008AF0EDA42CFCEA8EF0A4CDA8F08BF0A471
:1006C6002DCC3825F0FDE98FF0A42CCD35F0FCEBD0
:1006D6008EF0A4FEA9F0EB8FF0A4CFC5F02ECD3995
:0F06E600FEE43CFCEAA42DCE35F0FDE43CFC2202
:1006F50075F008758200EF2FFFEE33FECD33CDCCBC
:1007050033CCC58233C5829BED9AEC99E58298403E
:100715000CF582EE9BFEED9AFDEC99FC0FD5F0D61B
:10072500E4CEFBE4CDFAE4CCF9A88222B800C1B945
:100735000059BA002DEC8BF084CFCECDFCE5F0CB83
:10074500F97818EF2FFFEE33FEED33FDEC33FCEBBC
:1007550033FB10D703994004EB99FB0FD8E5E4F977
:10076500FA227818EF2FFFEE33FEED33FDEC33FC64
:10077500C933C910D7059BE99A4007EC9BFCE99A58
:10078500F90FD8E0E4C9FAE4CCFB2275F010EF2F9D
:10079500FFEE33FEED33FDCC33CCC833C810D7079D
:1007A5009BEC9AE899400AED9BFDEC9AFCE899F8D8
:0E07B5000FD5F0DAE4CDFBE4CCFAE4C8F9226B
:0E07C300C3E49FFFE49EFEE49DFDE49CFC2247
:0C07D100ECF0A3EDF0A3EEF0A3EFF0229B
:1007DD00A8828583F0D083D0821207F41207F41219
:1007ED0007F41207F4E473E493A3C583C5F0C5833E
:1007FD00C8C582C8F0A3C583C5F0C583C8C582C866
:01080D0022C8
:10080E00F8E0FBA3A3E0F925F0F0E5821582700273
:07081E001583E0FA38F02217
:09082500EBF0A3EAF0A3E9F022D4
:10082E00D083D082F8E4937012740193700DA3A359
:10083E0093F8740193F5828883E47374029368606D
:06084E00EFA3A3A380DF6D
:10085400D083D082F8E4937012740193700DA3A333
:1008640093F8740193F5828883E473740293B5F06A
:0D087400067403936860E9A3A3A3A380D8D2
:10088100EC8EF0A4CCC5F0CCCDF8EFA4CEC5F02D04
:10089100FDE43CFCE8A42EC8C5F03DFDE43CFCEFC2
:0D08A100A4FFE5F028FEE43DFDE43CFC2250
:00000001FF
